{
  "contractName": "Grading",
  "abi": [
    {
      "constant": true,
      "inputs": [],
      "name": "assignmentsCount",
      "outputs": [
        {
          "name": "",
          "type": "uint256"
        }
      ],
      "payable": false,
      "stateMutability": "view",
      "type": "function"
    },
    {
      "inputs": [],
      "payable": false,
      "stateMutability": "nonpayable",
      "type": "constructor"
    },
    {
      "constant": false,
      "inputs": [
        {
          "name": "_assignment_id",
          "type": "bytes32"
        }
      ],
      "name": "addAssignment",
      "outputs": [],
      "payable": false,
      "stateMutability": "nonpayable",
      "type": "function"
    },
    {
      "constant": false,
      "inputs": [
        {
          "name": "_assignment_id",
          "type": "bytes32"
        },
        {
          "name": "_from",
          "type": "bytes32"
        },
        {
          "name": "_to",
          "type": "bytes32"
        },
        {
          "name": "_grade",
          "type": "uint256"
        }
      ],
      "name": "addGradeTo",
      "outputs": [],
      "payable": false,
      "stateMutability": "nonpayable",
      "type": "function"
    },
    {
      "constant": false,
      "inputs": [
        {
          "name": "_assignment_id",
          "type": "bytes32"
        }
      ],
      "name": "getGradesCount",
      "outputs": [
        {
          "name": "",
          "type": "uint256[]"
        }
      ],
      "payable": false,
      "stateMutability": "nonpayable",
      "type": "function"
    }
  ],
  "bytecode": "0x608060405234801561001057600080fd5b506104e2806100206000396000f300608060405260043610610062576000357c0100000000000000000000000000000000000000000000000000000000900463ffffffff16806318b940251461006757806358d67b36146100be578063a349e47b146100ef578063db59860d14610175575b600080fd5b34801561007357600080fd5b506100bc600480360381019080803560001916906020019092919080356000191690602001909291908035600019169060200190929190803590602001909291905050506101a0565b005b3480156100ca57600080fd5b506100ed6004803603810190808035600019169060200190929190505050610249565b005b3480156100fb57600080fd5b5061011e600480360381019080803560001916906020019092919050505061028c565b6040518080602001828103825283818151815260200191508051906020019060200280838360005b83811015610161578082015181840152602081019050610146565b505050509050019250505060405180910390f35b34801561018157600080fd5b5061018a6103cf565b6040518082815260200191505060405180910390f35b6101a86103d5565b606060405190810160405280856000191681526020018460001916815260200183815250905060016000866000191660001916815260200190815260200160002081908060018154018082558091505090600182039060005260206000209060030201600090919290919091506000820151816000019060001916905560208201518160010190600019169055604082015181600201555050505050505050565b6000600260008154809291906001019190505550806001600084600019166000191681526020019081526020016000209080546102879291906103fd565b505050565b6060600080600090505b6001600085600019166000191681526020019081526020016000208054905081101561032d5781600160008660001916600019168152602001908152602001600020828154811015156102e557fe5b90600052602060002090600302016002015490806001815401808255809150509060018203906000526020600020016000909192909190915055508080600101915050610296565b81600160008660001916600019168152602001908152602001600020805490509080600181540180825580915050906001820390600052602060002001600090919290919091505550818054806020026020016040519081016040528092919081815260200182805480156103c157602002820191906000526020600020905b8154815260200190600101908083116103ad575b505050505092505050919050565b60025481565b6060604051908101604052806000801916815260200160008019168152602001600081525090565b82805482825590600052602060002090600302810192821561046e5760005260206000209160030282015b8281111561046d578282600082015481600001906000191690556001820154816001019060001916905560028201548160020155505091600301919060030190610428565b5b50905061047b919061047f565b5090565b6104b391905b808211156104af576000808201600090556001820160009055600282016000905550600301610485565b5090565b905600a165627a7a723058200baad31c381ff9050b3f83198e6c2d9ccef807d37526ff8913ea15c9905dc16e0029",
  "source": "pragma solidity ^0.4.18;\n\ncontract Grading {\n    struct Grade {\n        bytes32 from;\n        bytes32 to;\n        uint grade;\n    }\n\n    constructor() public {\n    }\n\n    bytes32[] assignment_ids;\n\n    mapping(bytes32 => Grade[]) private assignments;\n\n    function addAssignment (bytes32 _assignment_id) public {\n        Grade[] _init;\n        assignmentsCount++;\n        assignments[_assignment_id] = _init;\n    }\n\n    function addGradeTo(bytes32 _assignment_id, bytes32 _from, bytes32 _to, uint _grade) public {\n        Grade memory grade = Grade(_from,_to,_grade);\n        assignments[_assignment_id].push(grade);\n    }\n\n    uint public assignmentsCount;\n\n    function getGradesCount(bytes32 _assignment_id) public returns(uint[]) {\n        uint[] gradesCount;\n        for (uint i = 0; i < assignments[_assignment_id].length; i++) {                        \n            gradesCount.push(assignments[_assignment_id][i].grade);\n        } \n        gradesCount.push(assignments[_assignment_id].length);\n        return gradesCount;\n    }\n}\n",
  "sourcePath": "/Users/biancas/DS_PROJECT/grade_my_team/contracts/Grading.sol",
  "compiler": {
    "name": "solc",
    "version": "0.4.24+commit.e67f0147.Emscripten.clang"
  },
  "schemaVersion": "2.0.1",
  "updatedAt": "2018-11-24T18:36:02.383Z"
}